:020000040800F2
:10000000A0080020890100082F210008B519000868
:100010002D2100088F0200086D2500080000000057
:100020000000000000000000000000003321000874
:10003000910200080000000031210008352100086D
:10004000A3010008A3010008A3010008A301000800
:10005000A3010008A3010008A3010008A3010008F0
:10006000A3010008A3010008A3010008A3010008E0
:10007000A3010008A3010008A3010008A3010008D0
:10008000A3010008A3010008A3010008A3010008C0
:10009000A3010008A3010008A3010008A3010008B0
:1000A00099210008BD210008B1210008A521000800
:1000B000C9210008D5210008A3010008A3010008F8
:1000C000A3010008A3010008A3010008A301000880
:1000D000A3010008A3010008A3010008A301000870
:1000E000A3010008A3010008A301000800F002F822
:1000F00000F03AF80AA090E8000C82448344AAF188
:100100000107DA4501D100F02FF8AFF2090EBAE885
:100110000F0013F0010F18BFFB1A43F0010318473B
:10012000F425000014260000103A24BF78C878C1D6
:10013000FAD8520724BF30C830C144BF04680C60ED
:10014000704700000023002400250026103A28BF35
:1001500078C1FBD8520728BF30C148BF0B60704739
:100160001FB51FBD10B510BD00F05CF81146FFF7BC
:10017000F7FF02F00DFA00F07AF803B4FFF7F2FF90
:1001800003BC00F07DF8000009488047094800479B
:10019000FEE7FEE7FEE7FEE7FEE7FEE7FEE7FEE737
:1001A000FEE7FEE704480549054A064B7047000094
:1001B00097210008ED000008A0020020A008002000
:1001C000A0040020A00400204FF0000200B5134658
:1001D00094469646203922BFA0E80C50A0E80C5067
:1001E000B1F12001BFF4F7AF090728BFA0E80C5018
:1001F00048BF0CC05DF804EB890028BF40F8042B11
:1002000008BF704748BF20F8022B11F0804F18BF7D
:1002100000F8012B704770477047704700487047DF
:100220003C0200207546FFF7F9FFAE46050069461F
:10023000534620F00700854618B020B5FFF7B2FFFF
:10024000BDE820404FF000064FF000074FF00008D7
:100250004FF0000B21F00701AC46ACE8C009ACE858
:10026000C009ACE8C009ACE8C0098D46704710B5BC
:100270000446AFF300802046BDE81040FFF77DBF85
:1002800001491820ABBEFEE7260002007047FEE7DA
:10029000704700002DE9F84FDFF8B8910024A9F16C
:1002A000040B23460F2709F1040AABF1040EC9E041
:1002B0000125A5402A40AA427DD1674ED1F804C04D
:1002C000ACEB0608B44532D014DCBCF1030F3AD0D5
:1002D00009DCBCF1000F2AD0BCF1010F1CD0BCF12D
:1002E000020F31D11DE0BCF1110F17D0BCF1120F7C
:1002F0002AD119E0B8F5881F19D006DCB8F5803F7F
:1003000015D0B8F5801F1FD111E0B8F5001F0ED031
:10031000B8F5041F18D10AE0CB6815E0CB681B1DA7
:1003200012E0CB6808330FE0CB680C330CE08B682D
:100330002BB1012B4FF0080303D0456104E00423E7
:1003400002E0056100E00023FF2A01D8064601E033
:1003500000F104064FEA840501D9A5F12005D6F87D
:10036000008007FA05FC28EA0C0803FA05F548EABC
:100370000508C6F800804D68ED0062D5374DAE69BE
:1003800046F00106AE61AD6924F0030605F00105F3
:100390000095334D06EB050CDCF80850A607360F28
:1003A00007FA06F825EA0805DFF8B880404503D1CA
:1003B0004FF0000817E044E0DFF8AC80404502D180
:1003C0004FF001080FE0DFF8A480404502D14FF064
:1003D000020808E0DFF89880404502D14FF003089A
:1003E00001E04FF0040808FA06F848EA0508CCF8DE
:1003F00008804D68D9F80060ED024D4601D51643DE
:1004000000E096432E604D68DAF80060AD02554674
:1004100001D5164300E096432E604D68DBF800607E
:10042000AD035D4601D5164300E096432E604D684E
:10043000DEF80060ED03754601D5164300E09643F3
:100440002E60641C0D682A46E5407FF431AFBDE89C
:10045000F88F000008040140000011100010024055
:100460000000014000080140000C01400010014064
:10047000001401400148806870470000100000200F
:1004800070B5040025D094F83D00002520B984F80B
:100490003C50204600F07EFA242084F83D0020687D
:1004A000016821F0010101602068016841F4004108
:1004B00001602068016821F40041016000F0ECFB5C
:1004C0004D4A6168914201D84C4900E04C4988424C
:1004D00001D2012070BD4B492368B0FBF1F15E6889
:1004E00026F03F060E435E606368934206D94FF4E0
:1004F000967359434FF47A73B1FBF3F12368491CA7
:100500001E6A26F03F06314319626168914210D895
:100510004900401EB0FBF1F2521CC2F30B02042A48
:1005200001D2042022E0B0FBF1F0401CC0F30B002C
:100530001CE0A268F2B301EBC10303EB0116431EFA
:10054000B3FBF6F35B1C43F480431B0549D092B325
:1005500001EBC10202EB0111401EB0FBF1F0401CA7
:10056000C0F30B0040F4804040F400402168CA69A9
:100570004CF6FF739A431043C861D4E90710014356
:100580002068026822F0C00211430160D4E903012F
:1005900001432068826848F2FF339A431143816027
:1005A000D4E9050108432168CA6822F0FF0210431C
:1005B000C86001E00EE016E02068016841F001012A
:1005C00001602564202084F83D00256384F83E50B6
:1005D000002070BD01EB4106431EB3FBF6F35B1C2C
:1005E000B3E70120C2E701EB4101401EB0FBF1F08F
:1005F000401CC0F30B00B7E7A086010080841E00FA
:1006000000093D0040420F002DE9FF4F83B0002557
:10061000DDE910799A4693460446DDF84880009556
:10062000FFF728FF064694F83D0020287CD11923C7
:10063000012288492046009601F0D2FA0028F5D11F
:1006400094F83C0001286FD0012084F83C00206819
:100650000168C90703D1016841F001010160206808
:10066000016821F400610160222084F83D004020EF
:1006700084F83E0025646762A4F82A90608D208586
:100680007548E062CDE9008653465A4620460499F3
:1006900001F0A8F900287CD1208DDFF8C091202737
:1006A00068B1012814D00228206801681ED041F4E6
:1006B000806101602068416980690090BCE0206829
:1006C000416981690091016841F400710160B3E002
:1006D0002068016821F48061016072B62068416978
:1006E00081690091016841F400710AE041F4006100
:1006F000016072B62068416981690091016821F446
:100700008061016062B697E0032865D801280CD0AB
:10071000022843464FF000024946204600960BD07F
:1007200001F05EFAA8BB0CE091E03246414620465B
:1007300001F0FCFA68BB72E001F052FA48BB72B6F5
:1007400033E02068016821F48061016072B620689E
:100750000069616A0870606A401C6062208D401EFA
:100760002085608D401E60853D4846F2A8110068D6
:10077000B0FBF1F0C0EBC00000EB80000090401E29
:10078000009007D020684069C04340070DD500980D
:10079000F5E727E044F8305F6773A573206940F000
:1007A0002000206162B625731CE02068016841F4D6
:1007B0000071016020680069616A0870606A401C0D
:1007C0006062218D491E2185618D491E618562B659
:1007D00021680969017026E032464146204601F051
:1007E000A5FA18B1012007B0BDE8F08F20680069B4
:1007F000616A0870606A401C6062208D401E81B290
:100800002185608D401E608520684269D243520771
:1008100012D4032903D1016821F4806101602068AA
:100820000069616A0870606A401C6062208D401E29
:100830002085608D401E6085208D00287FF464AF88
:1008400084F83D7084F83E5084F83C50CBE7022099
:10085000C9E70000020010000000FFFF04000100D3
:100860001C0000202DE9FF4F83B09A46DDE9119767
:1008700093460446DDF84080FFF7FCFD054694F8FA
:100880003D0020287FD119230122404920460095B0
:1008900001F0A6F9002876D194F83C00012872D026
:1008A000012084F83C0020680168C90703D1016871
:1008B00041F0010101602068016821F400610160DC
:1008C000212084F83D00402084F83E000026266464
:1008D000C4F82480A4F82A90608D20852C48E0621A
:1008E000CDE9007553465A462046049901F0F8F8C0
:1008F00070B930E02A463946204601F04FFA58B127
:10090000206C042804D12068016841F40071016062
:10091000012007B0BDE8F08F606A216800780861A7
:10092000606A401C6062218D491E89B22185628DFA
:10093000521E628522685369DB435B070BD469B1A1
:1009400000781061606A401C6062208D401E208526
:10095000608D401E6085208D0028CBD12A46394607
:10096000204601F011F90028CAD154F83D0B016866
:1009700041F400710160202004F81E09E6776677D3
:100980000020C6E7FFE70220C3E7000002001000D6
:100990000000FFFF30B585B0002100910191029168
:1009A0000391214D0368214C122103222048AB42C0
:1009B0001DD1A36943F00803A361A369039203F067
:1009C000080304931302CDE900316946FFF762FC86
:1009D0001848416841F0E06141F002014160E0697E
:1009E00040F40010E061E06900F4001019E0124DDD
:1009F000AB4217D1A36943F00803A361A369039233
:100A000003F0080304934FF44063CDE900316946D5
:100A1000FFF740FCE06940F48000E061E06900F429
:100A20008000049005B030BD00540040001002402A
:100A3000000C01400000014000580040024881685D
:100A4000027811448160704710000020074810B5FB
:100A5000016841F010010160032000F075F80F20DB
:100A600000F006F800F024F8002010BD002002403D
:100A700070B50D4D04464FF47A712878B1FBF0F053
:100A80000A490968B1FBF0F000F0DCFA48B9102C13
:100A900007D200222146501E00F036F800206C607C
:100AA00070BD012070BD0000100000201C0000205F
:100AB0000C4808B5816941F001018161816901F04B
:100AC00001010091C16941F08051C161C06900F02C
:100AD000805000900448416821F0E06141F00071CD
:100AE000416008BD0010024000000140002809DB01
:100AF00000F01F02012191404009800000F1E02038
:100B0000C0F8001170470000F0B40E4B1B680C4693
:100B1000C3F30223C3F10705042D00D90425191DD1
:100B2000072901D2002300E0DB1E012606FA05F1A9
:100B3000491E214099409E40761E16403143F0BC2C
:100B400001F015BD0CED00E0064900F00702086851
:100B50004FF6FF03184040EA0220034A10430860A2
:100B6000704700000CED00E00000FA052DE9F047A9
:100B70000F46050061D0434E306800F00700B842D0
:100B800009D2306820F0070038433060306800F048
:100B90000700B84251D128683B4C810712D5400765
:100BA00003D5606840F4E06060602878000703D5F2
:100BB000606840F4605060606068A96820F0F000F0
:100BC000084360602878C00728D06868012810D0E2
:100BD0002168022810D0890700292EDA616821F0E7
:100BE000030101436160FFF745FC804641F288390B
:100BF0000DE021688903EFE78901EDE7FFF73AFC93
:100C0000A0EB0801494502D90320BDE8F0876068E0
:100C1000696800F00C00B0EB810FEFD1306800F094
:100C20000700B8420BD9306820F007003843306025
:100C3000306800F00700B84201D00120E5E72878CD
:100C4000400705D56068E96820F4E060084360600B
:100C50002878000706D56068296920F4605040EACA
:100C6000C100606000F038F86168084AC1F3031100
:100C7000515CC8400649086006480068FFF7F8FE66
:100C80000020C2E70020024000100240FA260008BF
:100C90001C00002014000020044805490068496831
:100CA000044AC1F30221515CC84070471C00002077
:100CB000001002400A2700080448054900684968F6
:100CC000044AC1F3C221515CC84070471C00002097
:100CD000001002400A2700080E4A51680E4801F031
:100CE0000C03042B11D0082B0FD10C48C1F3834304
:100CF000C903C05C0AD55168084AC1F34041921E3D
:100D0000515C054A5043B0FBF1F070470449484339
:100D1000704700000010024000127A00EA26000826
:100D200000093D002DE9F84F040070D02078C04D37
:100D3000C00749D06868C0F38100012807D06868FF
:100D4000C0F38100022809D16868C00306D528686D
:100D5000800339D560680028E7D035E06068B0F5D9
:100D6000803F0BD010B1B0F5A02F11D0286820F42F
:100D700080302860286820F4802002E0286840F451
:100D800080302860606890B1FFF774FB06460AE087
:100D9000286840F480202860F0E700BFFFF76AFB76
:100DA000801B642873D828688003F7D50CE0FFF710
:100DB00061FB064605E000BFFFF75CFB801B642873
:100DC000F0D828688003F7D420789A4E80074FF037
:100DD00001094FF0000839D5686810F00C0F07D0F2
:100DE0006868C0F38100022809D16868C00306D48E
:100DF0002868800714D52069012808D110E02069EF
:100E0000B0B1C6F80090FFF735FB074605E00AE1F0
:100E1000FFF730FBC01B0228C4D828688007F7D52D
:100E20002868616920F0F80040EAC10028600DE000
:100E3000C6F80080FFF71EFB074604E0FFF71AFB29
:100E4000C01B022823D828688007F7D42078000721
:100E50002CD57948A169D9B1C0F80090FFF70AFBF9
:100E6000074604E0FFF706FBC01B02280FD8686A9C
:100E70008007F7D571484FF4FA510068B0FBF1F0E4
:100E8000009000BF0098411E0091FAD20EE080E071
:100E9000C0F80080FFF7EEFA074604E0FFF7EAFA31
:100EA000C01B022875D8686A8007F7D420784007ED
:100EB00060D5E8690027C00008D4E86940F0805098
:100EC000E861E869012700F0805000905C48016803
:100ED000C90513D40168834641F480710160FFF7AE
:100EE000C9FA824606E000BFFFF7C4FAA0EB0A0089
:100EF00064284ED8DBF80000C005F5D5E06801286D
:100F00000AD008B1052813D0286A20F00100286211
:100F1000286A20F0040002E0286A40F001002862FC
:100F2000E06841F2883B98B1FFF7A4FA82460BE0F3
:100F3000286A40F004002862EEE700BFFFF79AFA43
:100F4000A0EB0A0159455AD8286A8007F6D50CE06B
:100F5000FFF790FA824605E0FFF78CFAA0EB0A0152
:100F600059454CD8286A8007F6D41FB1E86920F0AB
:100F70008050E861E06988B36968C1F381010229A2
:100F800044D00228C6F8608004D0FFF773FA044604
:100F900038E034E0FFF76EFA074604E0FFF76AFA3C
:100FA000C01B02282BD828688001F7D4206AB0F52E
:100FB000803F05D16868A16820F40030084368606C
:100FC000D4E908010843696821F474110843686092
:100FD000C6F86090FFF74EFA044606E025E000BF31
:100FE000FFF748FA001B022809D828688001F7D5C6
:100FF0001BE000BFFFF73EFA001B022802D90320C6
:10100000BDE8F88F28688001F4D40EE00128F7D0FD
:101010006868226A00F48031914204D1616A00F468
:101020007010884201D00120EAE70020E8E70000C4
:101030000010024000004242800442421C00002096
:101040000070004010B5401EB0F1807F01D3012038
:1010500010BD4FF0E02460610F21601701F087FAA6
:101060000020A06107202061002010BD704770475C
:1010700010B590F83C20012A22D0012280F83C20B3
:10108000CA688C6822F4407222434C6822F4806261
:1010900022430C6822F4006222430C6922F480523D
:1010A00022434C6922F400522243C969002322F4EE
:1010B00080420A4301684A6480F83C30002010BD39
:1010C000022010BD70B590F83C20012A26D00124E2
:1010D00080F83C40022280F83D2003685A689D68F1
:1010E00022F070060A6832435A600D4B02689A4239
:1010F00008D0B2F1804F05D00A4B9A4202D00A4B79
:101100009A4204D1496825F080031943916080F820
:101110003D40002180F83C10084670BD022070BDA3
:10112000002C0140000400400008004010B50400FD
:1011300003D094F83D0010B107E0012010BD00205D
:1011400084F83C00204600F01FF8022084F83D009F
:10115000211D206801F044F8012084F8460084F83D
:101160003E0084F83F0084F8400084F8410084F891
:10117000420084F8430084F8440084F8450084F871
:101180003D00002010BD000070B586B00025009520
:101190000195029503950068484A4949904226D135
:1011A000886940F4006088618869002200F400606A
:1011B000049011461820FFF7A7FC1820FFF796FCB3
:1011C000002211461920FFF79FFC1920FFF78EFC23
:1011D000002211461A20FFF797FC1A20FFF786FC21
:1011E000002211461B20FFF78FFC1B2061E0354ECB
:1011F000354CB0F1804F27D0344A90425BD1C8695A
:1012000040F00200C861C86900F0020004908869DB
:1012100040F0080088618869694600F00800049081
:10122000332000903046FFF735F8606820F44060C6
:1012300040F0E06040F400606060002211461D2034
:10124000FFF762FC1D2034E0C86940F00100C8616E
:10125000C86900F001000490886940F004008861CA
:10126000886900F004000490886940F008008861F3
:101270008869694600F0080004904FF4004000902F
:101280001348FFF707F80820CDE900056946304606
:101290000295FEF7FFFF606820F4407040F0E060C8
:1012A00040F480706060002211461C20FFF72CFC87
:1012B0001C20FFF71BFC06B070BD0000002C014095
:1012C00000100240000C01400000014000040040FA
:1012D0000008014070B5044690F83C000025012844
:1012E00017D0012684F83C60022084F83D00206875
:1012F000826822F0770222F47F42826008685028D8
:1013000038D00DDC20284FD005DC90B3102811D147
:101310004AE0022070BD302846D040280AD13BE088
:1013200060282FD070280DD0B0F5805F03D0B0F5C5
:10133000005F12D0012584F83D60002084F83C0055
:10134000284670BDCB68D1E90121206800F091FFEB
:101350002068816841F0770109E0CB68D1E901217B
:10136000206800F086FF2068816841F48041816038
:10137000E1E719E0CA684968206801F02FF85021B8
:10138000206806E0CA684968206801F065F86021B5
:10139000206800F078FFCEE7CA684968206801F04D
:1013A0001DF840212068F4E7226801461046F0E766
:1013B00070472DE9F041054690F83C0000260C46A8
:1013C000012810D0012085F83C0072B1042A1CD0FD
:1013D000082A2CD00C2A50D00126002085F83C0089
:1013E0003046BDE8F0810220FBE7D4E90012E36853
:1013F000286801F005F82868816921F00C018161F5
:1014000028688169A26811430FE0D4E90012E368FB
:10141000286801F033F82868816921F4406181610E
:1014200028688169A26841EA02218161D5E72868BC
:10143000D4E9002C277B036A016A21F480710162E0
:10144000C16923F4007321F0030141EA0C0121F08A
:10145000F00C39074FF400774CEA116107EA0222D9
:101460001A43C16102622868C16921F00C01C1619F
:101470002868C169A26811432BE02868D4E90021DB
:10148000E768036AD0F820C02CF4805CC0F820C064
:10149000D0F81CC023F400532CF4407C4CEA01210A
:1014A00021F4704C4FF6FF7101EA07314FF40057F9
:1014B00041EA0C0107EA02321A43C161026228685C
:1014C000C16921F44061C1612868C169A26841EA2B
:1014D0000221C16181E710B5040003D094F83D00FA
:1014E00010B107E0012010BD002084F83C00204628
:1014F00000F01EF8022084F83D00211D206800F055
:101500006FFE012084F8460084F83E0084F83F0016
:1015100084F8400084F8410084F8420084F84300D5
:1015200084F8440084F8450084F83D00002010BD94
:1015300070472DE9F04104460068C66805694FF020
:101540000007A90713D5B10711D5F91E01610120C4
:101550002077206880698007204602D0FFF728FFA7
:1015600004E000F0A5F8204600F037F92777680777
:1015700016D5700714D521686FF0040008610220A9
:1015800020772068806910F4407F204602D0FFF762
:101590000FFF04E000F08CF8204600F01EF92777DA
:1015A000280715D5300713D521686FF008000861AA
:1015B000042020772068C0698007204602D0FFF70A
:1015C000F7FE04E000F074F8204600F006F92777F3
:1015D000E80616D5F00614D521686FF010000861F2
:1015E000082020772068C06910F4407F204602D090
:1015F000FFF7DEFE04E000F05BF8204600F0EDF8B7
:101600002777E80708D0F00706D021686FF00100BF
:101610000861204600F030F9280608D5300606D5C6
:1016200021686FF0800008612046FFF71FFD680603
:1016300008D5700606D521686FF040000861204685
:1016400000F01BF9A8060AD5B00608D521686FF08E
:10165000200008612046BDE8F041FFF708BDBDE865
:10166000F081000000B585B0002100910191029148
:10167000039100680B49884212D10B48816941F0FF
:10168000040181618069694600F0040004904FF410
:10169000706000900220019003900448FEF7FAFD6C
:1016A00005B000BD002C01400010024000080140C0
:1016B000704770B5044690F83C0000260D4601289E
:1016C0000FD0012084F83C006AB1042A1DD0082AFA
:1016D0002FD00C2A3FD00126002084F83C00304651
:1016E00070BD022070BD206800F0D6FD20688169C1
:1016F00041F0080181612068816921F00401816164
:10170000206881692A69114311E0206800F0ECFD2E
:101710002068816941F4006181612068816921F458
:1017200080618161206881692A6941EA02218161C1
:10173000D2E7206800F004FE2068C16941F008018A
:10174000C1612068C16921F00401C1612068C169DB
:101750002A69114311E0206800F01EFE2068C1696B
:1017600041F40061C1612068C16921F48061C161F7
:101770002068C1692A6941EA0221C161ACE710B55C
:10178000040003D094F83D0010B107E0012010BD23
:10179000002084F83C00204600F01EF8022084F867
:1017A0003D00211D206800F01BFD012084F846004B
:1017B00084F83E0084F83F0084F8400084F841003B
:1017C00084F8420084F8430084F8440084F845001B
:1017D00084F83D00002010BD7047704710B50446E6
:1017E000022249B104290ED0082913D094F84100EF
:1017F000012816D0012010BD94F83E000128F9D12F
:1018000084F83E200FE094F83F000128F2D184F8DC
:101810003F2008E094F840000128EBD184F84020F4
:1018200001E084F841200122206800F015FD0F49F5
:101830002068884203D1426C42F40042426420682E
:10184000884208D0B0F1804F05D00949884202D0C3
:101850000849884204D1816801F00701062903D0B4
:10186000016841F001010160002010BD002C014021
:1018700000040040000800407047704770B5040045
:1018800004D094F84100002510B106E0012070BD9D
:1018900084F84050204600F023F8242084F84100CA
:1018A0002068C16821F40051C160204600F002FEAA
:1018B0002068016921F4904101612068416921F0AB
:1018C0002A0141612068C16841F40051C16065642A
:1018D000202084F8410084F842006563002070BD38
:1018E00030B585B0002400940194029403942B4DEC
:1018F00003682B4802210322AB4229D1836943F4B8
:1019000080438361836903F480430493836943F0D4
:10191000080383618069234D00F008000490402093
:10192000CDE90001039269462846FEF7B3FC80200A
:10193000CDE90004694628460294FEF7ABFC1A483C
:10194000416841F0E06141F00401416005B030BD03
:10195000164DAB42FAD1C36943F40033C361C36986
:1019600003F400330493836943F0040383618069C3
:101970000F4D00F0040004900420CDE90001039213
:1019800069462846FEF786FC0820CDE90004694632
:1019900028460294FEF77EFCD8E70000003801409C
:1019A00000100240000C01400000014000440040D3
:1019B00000080140FEE701684A69D24352050FD48E
:1019C0006FF480624A61002140F8301F2022427388
:1019D0008173026942F004020261017301207047C1
:1019E000002070472DE9F84F0446006889460B9D9A
:1019F00001689846174641F48061016020680168DB
:101A000041F48071016000954FF0011B002259469E
:101A100020460A9B00F0E4F84FF4007A40B12068B9
:101A20000068C00501D5C4F840A00320BDE8F88FC8
:101A3000216809F0FE0008612B46284920460A9AD1
:101A400000F016F9F0BB20684169806900902A46D1
:101A500020460A9900F0A2F940B1206C04283AD13E
:101A60002068016841F40071016034E0FEB2B8F111
:101A7000010F09D02168380A08612A4620460A99D0
:101A800000F08CF90028E8D1206806612A4620463B
:101A90000A9900F083F90028DFD12068016841F439
:101AA0008071016000950022594620460A9B00F093
:101AB00097F80028B3D1216809F0FF0040F0010039
:101AC000086100E007E02B46044920460A9A00F02E
:101AD000CFF80028AAD00120A8E7000002000100EA
:101AE0002DE9F843044600680D46DDE908970168D2
:101AF0009846164641F4807101604B4600224FF033
:101B000001112046009700F06BF848B1206800688A
:101B1000C00502D54FF4007020640320BDE8F883AF
:101B2000216805F0FE0008613B464A4615492046FB
:101B300000F09EF888B920684169806900903A46B3
:101B40004946204600F02AF948B1206C042804D107
:101B50002068016841F4007101600120DEE7F5B200
:101B6000B8F1010F09D02168300A08613A464946A8
:101B7000204600F013F90028E7D120680561002015
:101B8000CCE700000200010070B516460D46044681
:101B90001EE02046FFF70FFF08B1012070BD681C52
:101BA00016D0FEF767FC801BA84200D885B92068D4
:101BB0004069C04340070BD5002044F8300F202176
:101BC0006173A073216941F0200121612073E4E772
:101BD00020684069C0434007DBD4002070BD00008E
:101BE0002DE9F047984617460D460446C1F30746CF
:101BF000DDF820902AE000BFB8F1FF3F26D0FEF7C5
:101C000039FCA0EB0901414502D8B8F1000F1DD104
:101C10002068012E16D0806925EA00000004000C1F
:101C200012D00020B84211D1002044F8300F2021FA
:101C30006173A073216941F02001216120730120AB
:101C4000BDE8F0874069E7E70120EBE72068012E57
:101C50000AD0806925EA00000004000C06D00020AC
:101C6000B842C9D00020EBE74069F3E70120F7E76D
:101C70002DE9F047984616460D4604464FF00009F8
:101C80004FF0200AC1F3074723E020684069C043B2
:101C9000400515D42068016841F400710160216895
:101CA0006FF480604861C4F8309084F83DA084F8F7
:101CB0003E90216C41F00401216484F83C9021E0C5
:101CC000701C06D0FEF7D6FBA0EB0800B04203D88C
:101CD00016B1012F1FD021E02068012F15D0806997
:101CE00025EA00000004000C18D000BF44F8309F23
:101CF00084F80DA084F80E90216941F02001216143
:101D000084F80C900120BDE8F087406925EA0000C6
:101D10000004000CEAD12068406901E02068806975
:101D200025EA00000004000CAFD1ECE72DE9F041FA
:101D3000002590460E460446202728E04069C0430F
:101D4000C0060CD454F8301B6FF01000486144F802
:101D500010596777A577206A2062257714E0FEF78F
:101D600089FBA0EB0800B04200D886B92068406922
:101D7000C04340060BD544F8305F6773A5732069F4
:101D800040F02000206125730120BDE8F08120682B
:101D90004169C9434906D1D40020F6E770B516461B
:101DA0000D4604461EE02046FFF705FE08B101205F
:101DB00070BD681C16D0FEF75DFB801BA84200D8E2
:101DC00085B920684069C04300060BD5002044F85F
:101DD000300F20216173A073216941F0200121613E
:101DE0002073E4E720684069C0430006DBD400208C
:101DF00070BD3EB50A25069CCDE900434900029519
:101E00000123FEF701FC002800D000BF3EBD2DE9F4
:101E1000F04186B08046012504A8CDE90005642480
:101E20002B467522D02102944046FEF7EDFB9DF82B
:101E30001000682803D0012006B0BDE8F08100271B
:101E400003AE8DF80C700096CDE9015401236B228E
:101E5000D0214046FEF706FD07208DF80C000096C5
:101E6000CDE9015401231922D0214046FEF7FAFCA6
:101E70008DF80C700096CDE9015401231C22D0216D
:101E80004046FEF7EFFC8DF80C700096CDE901544A
:101E900001231B22D0214046FEF7E4FC0020CBE7C3
:101EA00010B596B000240F941094119412941394CA
:101EB0001C2168461494FEF787F9202107A8FEF735
:101EC00083F93D483B4901604721C0E9011444F6CC
:101ED0001F61C0E9031444618461FFF727F908B169
:101EE00072B6FEE74FF480500F900FA93248FFF70B
:101EF000F1F908B172B6FEE72F48FFF740FC08B1D0
:101F000072B6FEE7139413A92B481494FFF7DAF87E
:101F100008B172B6FEE7602000904FF47A70CDE908
:101F2000010403940494059400226946224806940F
:101F3000FFF7BFFB08B172B6FEE7042269461E48F0
:101F4000FFF7B7FB08B172B6FEE7082269461A48E8
:101F5000FFF7AFFB08B172B6FEE70C2269461648E0
:101F6000FFF7A7FB08B172B6FEE70794089409943F
:101F70004FF400500A94CDE90B4007A90E480E9487
:101F8000FFF776F808B172B6FEE700210A48FFF7BE
:101F900025FC04210848FFF721FC08210648FFF72B
:101FA0001DFC0C210448FFF719FC0348FFF75AFBFE
:101FB00016B010BD002C0140C800002010B58AB03A
:101FC00000242748049405940694079408940994DF
:101FD0000094019402944FF08041039401604721E2
:101FE000C0E901144FF6FF71C0E903148461FFF7E3
:101FF0009DF808B172B6FEE74FF48050049004A932
:102000001748FFF767F908B172B6FEE71448FFF703
:1020100062FA08B172B6FEE7089408A9104809945C
:10202000FFF750F808B172B6FEE70120CDE9004095
:102030000420029003200390002269460848FFF71D
:10204000B8F908B172B6FEE7042269460448FFF702
:10205000B0F9002801D072B6FEE70AB010BD00004A
:102060001001002010B58AB000242F480494059474
:1020700006940794089409940094019402942949C1
:10208000039401604721C0E901144FF6FF71C0E9D4
:1020900003148461FFF74AF808B172B6FEE74FF403
:1020A0008050049004A92048FFF714F908B172B6D3
:1020B000FEE71D48FFF70FFA08B172B6FEE7089475
:1020C00008A919480994FEF7FDFF08B172B6FEE7AA
:1020D0000120CDE90040042002900320039000225B
:1020E00069461148FFF765F908B172B6FEE70422A8
:1020F00069460D48FFF75DF908B172B6FEE70822A0
:1021000069460948FFF755F908B172B6FEE70C2297
:1021100069460548FFF74DF9002801D072B6FEE781
:102120000AB010BD0004004058010020FEE7FEE7A1
:1021300070477047FEF782BC30B58FB028216846E3
:10214000FEF742F814210AA8FEF73EF80121080420
:10215000CDE900100024029402250491CDE9075036
:102160004FF4E01009906846FEF7DCFD08B172B646
:10217000FEE70F20CDE90A054FF48060CDE90C4061
:1021800002210AA80E94FEF7F1FC002801D072B6D5
:10219000FEE70FB030BD70470148FFF7CAB9000035
:1021A000C80000200148FFF7C4B90000C8000020A3
:1021B0000148FFF7BEB90000C80000200148FFF742
:1021C000B8B90000C80000200148FFF7B2B900000C
:1021D000100100200148FFF7ACB9000058010020B1
:1021E000F0B50268194B1A4C1A4D4FF080479842CF
:1021F00005D0B84203D0A04201D0A84203D122F0BA
:1022000070064A683243984205D0B84203D0A042D3
:1022100001D0A84203D122F44074CA6822434C6919
:1022200022F08002224302608A68C2620A688262E7
:10223000984201D109690163012141610169C9071E
:1022400003D0016921F001010161F0BD002C0140C2
:10225000000400400008004010B501F01F030121F8
:10226000046A99408C430462016A9A4011430162F6
:1022700010BD10B5846842EA032224F47F440A4367
:102280002243826010BD826822F070020A4342F04D
:10229000070181607047000030B5036A026A22F0CE
:1022A000010202624268846924F073050C682C43C1
:1022B00023F002058B682B430A4DA8420BD123F073
:1022C0000805CB6822F440722B434D6923F00403C8
:1022D00015438A692A434260846149684163036205
:1022E00030BD0000002C014030B5026A036A23F0C3
:1022F00010030362436884690D6824F4E64444EAE9
:1023000005248D6822F0200242EA05120B4DA842F6
:102310000ED1CD6822F0800242EA05124D6923F405
:10232000406343EA85038D6922F0400243EA850356
:102330004360846149688163026230BD002C0140C2
:1023400030B5036A026A22F4807202624268C4698C
:1023500023F4007324F073050C682C438D6843EA62
:1023600005230C4DA8420ED1CD6823F4006343EA47
:1023700005234D6922F4405242EA05128D6923F487
:10238000806342EA05124260C4614968C163036226
:1023900030BD0000002C014030B5046A026A22F40E
:1023A000805202624268C3690D6823F4E64343EA3F
:1023B00005238D6824F4005444EA0534064DA842F0
:1023C00004D14D6922F4804242EA85124260C36121
:1023D00049680164046230BD002C014010B5036AF5
:1023E000046A24F001040462846924F0F00444EADD
:1023F000021423F00A020A438461026210BD000045
:1024000070B5056A046A24F00104046284690F4E01
:10241000B04208D0B0F1804F05D00D4EB04202D08E
:102420000C4EB04203D124F00304144301E044F005
:1024300001041A0724F0F00444EA126225F00A03AA
:1024400001F00A0119438261016270BD002C014054
:10245000000400400008004010B5036A046A24F03C
:1024600010040462846923F0A00324F4704444EA55
:10247000023243EA01118261016210BD30B5046A83
:10248000056A25F010050562856925F4407545EA61
:10249000022222F470454FF6FF7202EA033224F062
:1024A000A0032A43A02404EA0111194382610162B6
:1024B00030BD000070B5044600680169E26821F48F
:1024C0004051114301612169A068084361690843D3
:1024D0002168CA6841F20C639A430243CA602068CB
:1024E0004169A26921F44071114341611E4920688C
:1024F000884202D1FEF7E0FB01E0FEF7CDFB00EBE6
:10250000C00101EB0012606864218000B2FBF0F3AF
:10251000B3FBF1F36FF018067343B2FBF0F5B2FBB7
:10252000F0F605EB8305322303EB0515B5FBF1F55A
:10253000B6FBF1F605F0F00505EB0615B2FBF0F67B
:10254000B2FBF0F0B0FBF1F06FF01802504306EB75
:10255000800003EB0010B0FBF1F0216800F00F00E9
:102560002844886070BD000000380140FEE709077C
:10257000090E002804DB00F1E02080F80014704709
:1025800000F00F0000F1E02080F8141D70470000FB
:1025900008B5FEF75BFAFFF7CFFD3748816941F0D8
:1025A00020018161816901F020010091816941F080
:1025B00004018161816901F004010091816941F0A8
:1025C0000801816180692D4900F0080000902C48C5
:1025D0002C4F00240160C0E901744FF48048C0E929
:1025E000034844618461C4610462FDF749FF08B196
:1025F00072B6FEE7FFF754FCFFF7E0FCFFF732FD91
:10260000224821494FF4E1350160C0E901540C260C
:10261000C460C0E904468461C461FFF72FF908B1C2
:1026200072B6FEE716481A4954300160C0E90174D9
:10263000C0E9034844618461C4610462FDF720FF7E
:1026400008B172B6FEE71148124948380160C0E986
:102650000154C460C0E904468461C461FFF70EF907
:1026600008B172B6FEE7064800F038F800F014F83A
:102670000348FFF7CCFBFEE7001002400054004087
:1026800020000020A086010000440040E801002056
:102690000058004000380140F8B50024084EA2253B
:1026A00005EB4400C0B26A46022100F00BF8BDF809
:1026B000000040BA26F81400641C062CF0DBF8BDBC
:1026C0003002002008B50B460092024602487721EE
:1026D000C068FFF78EFB08BD000000200149C860FC
:1026E00070470000000000200102020304050607F5
:1026F00008090A0B0C0D0E0F10100000000000005E
:10270000000001020304060708090000000001029E
:10271000030400003427000800000020200000000F
:10272000280100085427000820000020800800002D
:102730004401000804000000000000000000000048
:102740000000000001000000100000000000000078
:0427500000127A00F9
:04000005080000ED02
:00000001FF
